:020000040000FA
:100000000928FF3FFF3FFF3F7E14803104227E100E
:1000100009000A280130FA00A001A101A201A301F0
:10002000A401A501A601A7017E1020001728F03029
:100030002100990023008D01073021009500240044
:100040008D000230F900A030F8009230890B26288C
:10005000F80B2628F90B2628003220008D1C0D19DC
:10006000E928A72122008C1721008C136830F800A2
:10007000E430890B3928F80B392800320030200091
:100080008C1A0130A80022000D1321000D13153029
:10009000F9004B30F800BE30890B4C28F80B4C2887
:1000A000F90B4C2800322000280803195C28220094
:1000B0008D1521008D116228303022008D04CF3043
:1000C00021008D0522008C1321008C1322008C014D
:1000D00021000D17FB30F601F60AD021FC30F601A5
:1000E000F60AD021FD30F601F60AD0212030F600C4
:1000F000FE30D0212130F600FF30D0211130F90040
:100100003C30F800CB30890B8328F80B8328F90B9F
:10011000832800002000AE01A901A90AA0282E080A
:10012000C63E840081300318013E85000008F800B7
:100130005A21780603199E282000A9012000AE0A42
:100140000A302E0229080318A828031D8F28290821
:100150000319DE28AC01AD012D08F1002C08F000D8
:1001600089212000AC0A0319AD0A60302C062D0449
:10017000031DAC28AA01AB01AE012E08203E86006B
:1001800087015A21810020000830AE0A2E06031D87
:10019000BD282B08F1002A08F0002030F200EB20E7
:1001A0002000AA0A0319AB0A80302A06031DBC28C6
:1001B0002B03031DBC2821001714DD288D180D1DED
:1001C000DE28FF3022008C0021008C008D001714E7
:1001D000E828DD2109287108F5007008F4000230D4
:1001E000F435F50DF435F50DF507230095171515C4
:1001F000151395167508920074089100F60176356E
:100200007207F300860087010108930076357207B4
:10021000F3008600413F940055309600AA309600C6
:100220009514000000002300910A0319920A04307B
:10023000F60A7606031DFF2872088600010893005F
:1002400072088600413F9400951275089200740868
:100250009100BA29F5007008F400230095182D29A3
:100260007508FF3EF200FF3003180030F3007208FB
:100270009100730892009513F103710F4029080053
:100280009518402974088600870101089300F40A34
:10029000910A0319920A03108B1B03148B13151573
:1002A00055309600AA30960095141511031C3C2970
:1002B0008B173C297A0803196329E830F200FD30D6
:1002C000F300FA016629FF30F200F301F001F101B9
:1002D000F4018B1022008D1321008D13000000000B
:1002E00021008D1773087102031D782972087002AE
:1002F00003188729F00A0319F10A8B1C7229FF30B1
:10030000F001F101F40AF200F3018B107229740874
:1003100008007108F3007008F200F030F20EF30EDE
:10032000F30572080F39F304F030F2057208003E4D
:10033000F4000230733DF500740823009100750845
:10034000920015139517151615159516BA29220042
:100350009D019E012100970123008C012030240083
:100360008C0022008C17603021008C00FF308D0043
:100370008B13080055309600AA30960095140000A3
:10038000000023009518C1291511080044344E348B
:10039000543452344D34463457342D34553470343B
:1003A000F7007630F000F101F10A77082A29FE0003
:1003B00012001E00FE0BD8290034002A0800FF3F5F
:1003C000FF3FFF3FFF3FFF3FFF3FFF3FFF3FFF3F3D
:1003D000FF3FFF3FFF3FFF3FFF3FFF3FFF3FFF3F2D
:1003E000FF3FFF3FFF3FFF3FFF3FFF3FFF3FFF3F1D
:1003F000FF3FFF3FFF3FFF3FFF3FFF3FFF3FFF3F0D
:10040000012AE72A000000008B1C312A0B1A222A3D
:10041000312A0330CA00FF30BA01BA0AFA27302A5B
:10042000BA0AFF309500302AB90A112AB80A112AEF
:100430008B120C25302A0430CA00FF30BA01BA0AE8
:10044000FA27302A20004A08FF3E031C302A840085
:10045000073004020318302A8731E930040782008C
:100460008B100B188B1D692A3430FD00F230890B7C
:10047000372AFD0B372A2700961C5F2A20008D188B
:10048000512A2D0803194D2AAD01AE01BE01BD014F
:10049000BC01BC0A210011105C2AAE01AE0AC027C3
:1004A0005C2A2E0803195C2AAD01AD0AAE01BE011B
:1004B000BD01BC01AA279110043027009605161D26
:1004C000692A20000D19662ABB01BB0A02302700E9
:1004D00096052000111C832A2100111C832A20006C
:1004E000B0033008031D7D2AAD01AE01BE01BD0180
:1004F000BD0ABC0121001110812A3B309700E03079
:100500009600200011102000911C9B2A2100911CB4
:100510009B2A2000AF032F08031D972ABE01BE0AA5
:10052000AE01AD01BD01BC0121009110992AFF303F
:100530009A00200091100B198B1E0800D72A283032
:100540003A02031CAD2A35303A020318AD2A0530B1
:10055000CA00F030B901FA27E52A0830CA008B1228
:100560000B12E52A2E303A06031DBE2A0530AC01D7
:10057000AC0ACA00F030B901FA27E52ACA01CA0A52
:10058000E52A0630CA00F030B801FA27E52A07301C
:10059000CA00F030FA27E52A2C080319D32AAC0147
:1005A000CA01CA0AD52A0230CA008B12E52A2000E5
:1005B0004A08FD3E031CE52A8400053004020318A6
:1005C000E52A8731F530040782000B110800063058
:1005D000C8000130C9000230CA000130CB005030E1
:1005E000840020308500A030FE00FF0186272030E7
:1005F0008400003085001F30FE000030FF00862799
:100600002000022B0627C92722008C1721008C13FB
:1006100064302000C7000B302000C3006230890B1B
:100620000F2BC30B0F2B000020000D1FC7019630AE
:10063000C70A4706031D0B2B00308C1A0130B1008E
:100640005F2709262F2B490B322B0030E126200093
:10065000CA01CA0ABD01BC01BE01BB01B201200032
:100660000C1B232B3D080319392B0030BD01FA0167
:100670000A2420003E080319422B0030BE01FA0173
:10068000FA0A0A2420003C0803194B2B0230BC0153
:10069000FA0000300A2420003B080319532B0130D4
:1006A000BB01FA010A24083020004A060319992BDD
:1006B000A72B072509302000C4001E30C300E430FA
:1006C000890B602BC30B602BC40B602B0000210037
:1006D0000D17DA27A72B0030E126DA27A72B0030E9
:1006E000E1262000CA010B12A72B22008C1B7E2BB7
:1006F0000C082000CB001F30CB05812B21302000BF
:10070000CB00B201B20A692B3A080319692B2130D8
:100710003A020318692B22008C1B932B20003A0805
:10072000FF3E9E27692BF60120003A08FF3E662611
:10073000692B3A08213A03196B2B033A03196F2BE3
:10074000063A0319592B033A0319752B842B3608E3
:100750000319B82BB6013408003ED2272000330617
:100760000319B72B3308F6003408003EE227DA27D6
:1007700035080319CD2BA030B50134020318CC2B5A
:100780003408503EC3002030C401C43D43088600F5
:100790004408870033088100DA2737080319FD2B46
:1007A0000230B7013306031DE32BA03034020318D7
:1007B000E12B3408503E860020308701873D010838
:1007C000E72BC601E82B3408003ED2272000C600E4
:1007D000C501450846060319FC2B22008D13210094
:1007E0008D130000000021008D173530890BF62B8A
:1007F00000002000C50AE92BDA2703100D1F03149F
:100800000030093D320503192F2BB201F6014B08C8
:1008100066262F2BC200C901C90A7A08FB002030C6
:10082000FB357B07FC000630F000420892277C076E
:10083000FD00860087010108013A0319322C033AB2
:100840000319662C013A0319BB2C073A0319D22C61
:10085000023A0319F42C013A0319DB2C0F3A03195D
:10086000E42CF62CF724420892277C07FD00860032
:100870002130870101020318572CF601F60AF724EC
:100880004208922700256626FD30D227013A031937
:100890000800F7242000420892277C07FD0086000C
:1008A0008701010B0800FD30F601F60AE22FFD304A
:1008B000D227213A0319602C2130F600FD30E227BF
:1008C0002000CA010B120130B201E12E22008C1F60
:1008D0006F2CEF308600203087002130782C0C08F8
:1008E0001F39013EFB00EF308600203087007B0877
:1008F000810020004A08031D822CEF308600203042
:10090000870081174A0B892CEF3086002030870042
:10091000011722008D13F72420004208922700259A
:10092000BF0022000C082000C000E030C0053F08D6
:100930001F39C004C01321000D082000C100383049
:10094000C10431080319A62CC111A82CC730C10558
:1009500021008D130530890BAB2C00000000000036
:10096000000000002000410821008D002000400808
:1009700022008C00DA2F32080319C22CB201F601D2
:100980004B08662607250930FC001E30FB00E430CA
:10099000890BC82CFB0BC82CFC0BC82C0032210087
:1009A0000D17080022008D1321008D130000000098
:1009B00021008D170800B201F601F60AF72442085B
:1009C000922700256626BA2C023025020318A503BB
:1009D000B201F601F60AF72442089227002566269E
:1009E000DA27CA01CA0A08005030B52F08007A0871
:1009F000FB002130FB357B07FC000630F0000800CF
:100A00007C07FD00860087010108FF3E08002200E8
:100A10000D1321000D130800E12D381C112D01309C
:100A2000122D0030F80078080319252D072509300C
:100A3000F5001E30F400E430890B1C2DF40B1C2D46
:100A4000F50B1C2D00322000B20123303906031DA6
:100A5000312DEF308600203087000108B9003F308B
:100A6000B90521303906031D382D0030E1263B2D14
:100A70003908FF3E9E272000B81D412DCA010B12E8
:100A8000482D381D462DCA01CA0A482D0230CA0019
:100A9000780803194D2D21000D172000B81C0800FF
:100AA00022008D1321008D130000000021008D17FE
:100AB0000800B601B60A3808FD3EB4003908B30094
:100AC000CA010B120800F02503307C060319702DB3
:100AD0007C35203EFE25213E860039088100732D9D
:100AE0007B083907C80002302000CA000800F02542
:100AF0007C35263EFE25273E8600390881000230DF
:100B0000CA000800B601B60A3908B40038085F2DDB
:100B1000B701B70A842DB501B50A842D3908380606
:100B20000319972DCA01CA0A0800AC01DA2F390847
:100B3000013A0319922D113A0319952D0F3A031911
:100B4000602D922D3808F400F436F4367408F9005C
:100B500022000C08FA00103020003906031DB72DC2
:100B60007908F0007A08F10005302727732D390B3A
:100B7000BC2D04262727732D20303906031D732D25
:100B8000F601F70104262727F60A0319F70A1030A1
:100B9000770676040319732DC22DB601B60A3808FC
:100BA000FA3E5D2D39083806031D732D390BDA2DF9
:100BB0008B11732D270096018B15732D3808B527DF
:100BC000732D20003A08D83E031C080084000D3025
:100BD0000402031808006D30873104078200080002
:100BE0003808F400F436F436F4367408FC000330A8
:100BF000FC053808FB000730FB050800860087016C
:100C00007B0881007C3508007908F0007A08F10043
:100C1000033420000C1B582E8D1C031E182EFE3092
:100C2000D227FC0008302000A4007C08A500362E46
:100C30000D1D031E262EFF30D227FC00213A031D76
:100C4000362EDA27CA01CA0AC901362EFD30D2274C
:100C5000FA0021307A020318312EFD30D227FC0031
:100C6000362EFF30FC002000CA010B1220307C061B
:100C7000031D3D2EDA27CA01CA0A21307C0203185F
:100C80005C2E22000D1321000D13F6017C08FF3E9F
:100C900066260930FB001E30FA00E430890B4E2E28
:100CA000FA0B4E2EFB0B4E2E003221000D175C2E40
:100CB000DA27CA01CA0AC9018B10270096010B1056
:100CC0000B112000111091108B170800F900203033
:100CD000790276080318A62E03197D2E0725093000
:100CE000F8001E30F700E430890B742EF70B742ED9
:100CF000F80B742E00322000B201200031080319D5
:100D0000862E22008D1521008D118C2E3830220068
:100D10008D04C73021008D0522008C1321008C1317
:100D200079089E27790803199F2EFB30D227A72622
:100D300003199F2EFC30D227A726031DA02EDA27E9
:100D400076080319080021000D170800E12EFF3E68
:100D5000F700FF3003180030F800790877067804B0
:100D60000800F5007008F40023009518B42E7508EB
:100D7000FF3EF200FF3003180030F30072089100CC
:100D8000730892009513F103710FC72E0800951890
:100D9000C72E74088600870101089300F40A910A9F
:100DA0000319920A03108B1B03148B13151555306E
:100DB0009600AA30960095141511031CC32E8B17AC
:100DC000C32EF20072080319F42E07250930F10032
:100DD0001E30F000E430890BEB2EF00BEB2EF10B04
:100DE000EB2E00322000B20122008C1721008C1360
:100DF000200031080319FF2E21008D15022F3830F5
:100E000021008D047208031D0D170800F030210029
:100E10009900970123008C018D0107302100950076
:100E2000203024008C0007308D0022008C176030A9
:100E300021008C00023027009400063095008B15AD
:100E40003130200098007E309C000B170800F20023
:100E5000F3017308720603193C2F7308F03E8400F7
:100E600087300318013E8500000822008C008B109B
:100E70008B1C382FF30A292F700822008C008B104E
:100E80008B1C402F8B100800F3007308F200230026
:100E90009518472F700891009201F103710F512F9F
:100EA00008009518512F95131514720886008701B4
:100EB00013088100F20A910A0319920A4D2F033098
:100EC000A0002130A101A201A20AA300A601A60A46
:100ED000A701A70A2700960108000D2D592D632DA3
:100EE000772D822D882D8E2DEF2DA22DCD2D8B2DA2
:100EF000D22DDE2DFE0012001E000130FE02003059
:100F0000FF3B7F087E04031900347B2F640001300F
:100F100080010131FE020030FF3B7F087E0403198F
:100F20000034872FF200F10170087218F107F035D4
:100F3000F2367208031D942F71080800F000220099
:100F40000C08F100E030F10570081F39F104710858
:100F50008C0008003B309700E03096004808B00055
:100F60001110BC01210011140800F00023009D178E
:100F700070089A009E1CBA2F9D1321000D150800C1
:100F8000FF309A007830AF009110BE01210091141B
:100F90000800223023009B009F01A4309E001030E7
:100FA0009D000800F400F0007530F101F10A4427BB
:100FB0007508080002302000CA00B601B7018B1086
:100FC0000B160800F7007630F000F101F10A7708FF
:100FD000B12E1B2A092A102A102A142A162A182A86
:100FE000013400340134013400349F2AB22AC12A6A
:100FF000C72ACC2AF00095000B118B1608000000C0
:020000040001F9
:10E000000000000000000000000000000000000010
:10E010000000000000000000000000000000000000
:10E0200000000000000000000000000000000000F0
:10E0300000000000000000000000000000000000E0
:10E0400000000000000000000000000000000000D0
:10E0500000000000000000000000000000000000C0
:10E0600000000000000000000000000000000000B0
:10E0700000000000000000000000000000000000A0
:10E080000000000000000000000000000000000090
:10E090000000000000000000000000000000000080
:10E0A0000000000000000000000000000000000070
:10E0B0000000000000000000000000000000000060
:10E0C0000000000000000000000000000000000050
:10E0D0000000000000000000000000000000000040
:10E0E0000000000000000000000000000000000030
:10E0F0000000000000000000000000000000000020
:10E10000000000000000000000000000000000000F
:10E1100000000000000000000000000000000000FF
:10E1200000000000000000000000000000000000EF
:10E1300000000000000000000000000000000000DF
:10E1400000000000000000000000000000000000CF
:10E1500000000000000000000000000000000000BF
:10E1600000000000000000000000000000000000AF
:10E17000000000000000000000000000000000009F
:10E18000000000000000000000000000000000008F
:10E19000000000000000000000000000000000007F
:10E1A000000000000000000000000000000000006F
:10E1B000000000000000000000000000000000005F
:10E1C000000000000000000000000000000000004F
:10E1D000000000000000000000000000000000003F
:10E1E000000000000000000000000000000000002F
:10E1F00000000000000001000100010020002100DB
:04000E008C09FF1D3D
:020000040001F9
:08000000FF3FFF3FFF3FFF3F00
:00000001FF
