:020000000928CD
:100008007E14803104227E1009000A280130FA008B
:10001800A001A101A201A301A401A501A601A701B4
:100028007E1020001728F0302100990023008D0150
:1000380007302100950024008D000230F900A0301F
:10004800F8009230890B2628F80B2628F90B262869
:10005800003220008D1C0D19E928A72122008C17D9
:1000680021008C136830F800E430890B3928F80B2C
:1000780039280032003020008C1A0130A8002200F4
:100088000D1321000D131530F9004B30F800BE3068
:10009800890B4C28F80B4C28F90B4C28003220000F
:1000A800280803195C2822008D1521008D1162286B
:1000B800303022008D04CF3021008D0522008C13B2
:1000C80021008C1322008C0121000D17FB30F60152
:1000D800F60AD021FC30F601F60AD021FD30F601EF
:1000E800F60AD0212030F600FE30D0212130F6006B
:1000F800FF30D0211130F9003C30F800CB30890BAB
:100108008328F80B8328F90B832800002000AE0110
:10011800A901A90AA0282E08C63E84008130031828
:10012800013E85000008F8005A21780603199E2828
:100138002000A9012000AE0A0A302E02290803185F
:10014800A828031D8F2829080319DE28AC01AD0152
:100158002D08F1002C08F00089212000AC0A0319B1
:10016800AD0A60302C062D04031DAC28AA01AB0192
:10017800AE012E08203E860087015A21810020000A
:100188000830AE0A2E06031DBD282B08F1002A08E8
:10019800F0002030F200EB202000AA0A0319AB0A75
:1001A80080302A06031DBC282B03031DBC28210010
:1001B8001714DD288D180D1DDE28FF3022008C0055
:1001C80021008C008D001714E828DD21092871080A
:1001D800F5007008F4000230F435F50DF435F50D2E
:1001E800F507230095171515151395167508920030
:1001F80074089100F60176357207F30086008701CE
:100208000108930076357207F3008600413F940099
:1002180055309600AA30960095140000000023007F
:10022800910A0319920A0430F60A7606031DFF287C
:10023800720886000108930072088600413F940006
:1002480095127508920074089100BA29F500700893
:10025800F400230095182D297508FF3EF200FF30A1
:1002680003180030F3007208910073089200951388
:10027800F103710F40290800951840297408860079
:10028800870101089300F40A910A0319920A0310DE
:100298008B1B03148B13151555309600AA30960046
:1002A80095141511031C3C298B173C297A0803194E
:1002B8006329E830F200FD30F300FA016629FF30C7
:1002C800F200F301F001F101F4018B1022008D130B
:1002D80021008D130000000021008D1773087102A2
:1002E800031D78297208700203188729F00A031978
:1002F800F10A8B1C7229FF30F001F101F40AF200B7
:10030800F3018B107229740808007108F300700853
:10031800F200F030F20EF30EF30572080F39F30411
:10032800F030F2057208003EF4000230733DF5002B
:100338007408230091007508920015139517151677
:1003480015159516BA2922009D019E0121009701D5
:1003580023008C01203024008C0022008C17603090
:1003680021008C00FF308D008B130800553096005B
:10037800AA30960095140000000023009518C129A2
:100388001511080044344E34543452344D34463434
:1003980057342D3455347034F7007630F000F101BD
:1003A800F10A77082A29FE0012001E00FE0BD82940
:0603B8000034002A0800D9
:04040000012AE72ABC
:100408008B1C312A0B1A222A312A0330CA00FF30EA
:10041800BA01BA0AFA27302ABA0AFF309500302AF8
:10042800B90A112AB80A112A8B120A24302A043070
:10043800CA00FF30BA01BA0AFA27302A20004A084F
:10044800FF3E031C302A8400073004020318302AB8
:100458008731E930040782008B100B188B1D692A3D
:100468003430FD00F230890B372AFD0B372A27007C
:10047800961C5F2A20008D18512A2D0803194D2A31
:10048800AD01AE01BE01BD01BC01BC0A21001110C5
:100498005C2AAE01AE0AC0275C2A2E0803195C2A22
:1004A800AD01AD0AAE01BE01BD01BC01B527911079
:1004B800043027009605161D692A20000D19662AA2
:1004C800BB01BB0A0230270096052000111C832AB5
:1004D8002100111C832A2000B0033008031D7D2A47
:1004E800AD01AE01BE01BD01BD0ABC012100111064
:1004F800812A3B309700E030960020001110200040
:10050800911C9B2A2100911C9B2A2000AF032F08D5
:10051800031D972ABE01BE0AAE01AD01BD01BC0193
:1005280021009110992AFF309A00200091100B1990
:100538008B1E0800D72A28303A02031CAD2A353012
:100548003A020318AD2A0530CA00F030B901FA277B
:10055800E52A0830CA008B120B12E52A2E303A061B
:10056800031DBE2A0530AC01AC0ACA00F030B9013F
:10057800FA27E52ACA01CA0AE52A0630CA00F03075
:10058800B801FA27E52A0730CA00F030FA27E52A29
:100598002C080319D32AAC01CA01CA0AD52A023089
:1005A800CA008B12E52A20004A08FD3E031CE52AF2
:1005B8008400053004020318E52A8731F530040762
:1005C80082000B1108000630C8000130C900023053
:1005D800CA000130CB005030840020308500A030A4
:1005E800FE00FF01912720308400003085001F3075
:1005F800FE000030FF0091272000022B0D27C9279D
:1006080022008C1721008C1364302000C7000B30A7
:100618002000C3006230890B0F2BC30B0F2B000087
:1006280020000D1FC7019630C70A4706031D0B2B74
:1006380000308C1A0130B100662710262F2B490B89
:10064800322B0030E8262000CA01CA0ABD01BC01CD
:10065800BE01BB01B20120000C1B232B3D0803196E
:10066800392B0030BD01FA01122520003E0803197C
:10067800422B0030BE01FA01FA0A122520003C087C
:1006880003194B2B0230BC01FA0000301225200060
:100698003B080319532B0130BB01FA01122508301E
:1006A80020004A060319992BA72B0B260930200096
:1006B800C4001E30C300E430890B602BC30B602BD1
:1006C800C40B602B000021000D17DA27A72B003080
:1006D800E826DA27A72B0030E8262000CA010B12EB
:1006E800A72B22008C1B7E2B0C082000CB001F3070
:1006F800CB05812B21302000CB00B201B20A692B37
:100708003A080319692B21303A020318692B220091
:100718008C1B932B20003A08FF3EA927692BF60172
:1007280020003A08FF3E6D26692B3A08213A031942
:100738006B2B033A03196F2B063A0319592B033A0B
:100748000319752B842B36080319B82BB601340806
:10075800003ED227200033060319B72B3308F600D2
:100768003408003EE227DA2735080319CD2BA030DC
:10077800B50134020318CC2B3408503EC300203096
:10078800C401C43D4308860044088700330881003B
:10079800DA2737080319FD2B0230B7013306031D8A
:1007A800E32BA03034020318E12B3408503E8600B6
:1007B80020308701873D0108E72BC601E82B340864
:1007C800003ED2272000C600C50145084606031989
:1007D800FC2B22008D1321008D1300000000210046
:1007E8008D173530890BF62B00002000C50AE92B40
:1007F800DA2703100D1F03140030093D32050319D1
:100808002F2BB201F6014B086D262F2BEA2C381C32
:100818000F2C0130102C0030F80078080319232C15
:100828000B260930F5001E30F400E430890B1A2C31
:10083800F40B1A2CF50B1A2C00322000B2012330CD
:100848003906031D2F2CEF30860020308700010861
:10085800B9003F30B90521303906031D362C003068
:10086800E826392C3908FF3EA9272000B81D3F2C5F
:10087800CA010B12462C381D442CCA01CA0A462C40
:100888000230CA00780803194B2C21000D172000EC
:10089800B81C080022008D1321008D1300000000F1
:1008A80021008D170800B601B60A3808FD3EB400CD
:1008B8003908B300CA010B120800F92403307C067A
:1008C80003196E2C7C35203E0C25213E8600390804
:1008D8008100712C7B083907C80002302000CA004B
:1008E8000800F9247C35263E0C25273E8600390869
:1008F80081000230CA000800B601B60A3908B400FF
:1009080038085D2CB701B70A822CB501B50A822CCC
:10091800390838060319952CCA01CA0A0800AC011F
:10092800DA2F3908013A0319902C113A0319932C3C
:100938000F3A03195E2C902C3808F400F436F4367C
:100948007408F90022000C08FA001030200039065B
:10095800031DB52C7908F0007A08F10005302E2720
:10096800712C390BBA2C07252E27712C203039060B
:10097800031D712CF601F70107252E27F60A031926
:10098800F70A1030770676040319712CC02CB601CB
:10099800B60A3808FA3E5B2C39083806031D712C54
:1009A800390BD82C8B11712C270096018B15712CC3
:1009B800390B712C23009D172000380823009A005A
:1009C8009E1CE42C9D1321000D15712C20003A0863
:1009D800D83E031C080084000D30040203180800E8
:1009E800783087310407820008003808F400F436AC
:1009F800F436F4367408FC000330FC053808FB00B4
:100A08000730FB0508007908F0007A08F100033484
:100A1800860087017B0881007C350800C200C90177
:100A2800C90AD82DFB2542089D277C07FD008600B2
:100A380021308701010203183B2DF601F60AFB2538
:100A480042089D2704266D26FD30D227013A031956
:100A58000800FB25200042089D277C07FD00860032
:100A68008701010B0800FD30F601F60AE22FFD3080
:100A7800D227213A0319442D2130F600FD30E22710
:100A88002000CA010B120130B201E82E22008C1F8F
:100A9800532DEF3086002030870021305C2D0C0864
:100AA8001F39013EFB00EF308600203087007B08AD
:100AB800810020004A08031D662DEF308600203093
:100AC800870081174A0B6D2DEF3086002030870094
:100AD800011722008D13FB25200042089D270426BC
:100AE800BF0022000C082000C000E030C0053F080D
:100AF8001F39C004C01321000D082000C100383080
:100B0800C104310803198A2DC1118C2DC730C105C4
:100B180021008D130530890B8F2D00000000000087
:100B2800000000002000410821008D00200040083E
:100B380022008C00DA2F32080319A62DB201F60123
:100B48004B086D260B260930FC001E30FB00E430F4
:100B5800890BAC2DFB0BAC2DFC0BAC2D003221000E
:100B68000D17080022008D1321008D1300000000CE
:100B780021008D170800B201F601F60AFB2542088C
:100B88009D2704266D269E2D023025020318A503F5
:100B9800B201F601F60AFB2542089D2704266D26B8
:100BA800DA27CA01CA0A08007A08FB002030FB3598
:100BB8007B07FC000630F00042089D277C07FD00FB
:100BC800860087010108013A0319162D033A031913
:100BD8004A2D013A03199F2D073A0319B62D033AF6
:100BE8000319BF2D0F3A0319C82DFA2D08007A08EA
:100BF800FB002130FB357B07FC000630F0000800C5
:100C08007C07FD00860087010108FF3E08002200DE
:100C18000D1321000D13080020000C1B5F2E8D1CE6
:100C2800031E1F2EFE30D227FC0008302000A4002F
:100C38007C08A5003D2E0D1D031E2D2EFF30D2274A
:100C4800FC00213A031D3D2EDA27CA01CA0AC90150
:100C58003D2EFD30D227FA0021307A020318382EB3
:100C6800FD30D227FC003D2EFF30FC002000CA01D9
:100C78000B1220307C06031D442EDA27CA01CA0A4B
:100C880021307C020318632E22000D1321000D135E
:100C9800F6017C08FF3E6D260930FB001E30FA0085
:100CA800E430890B552EFA0B552EFB0B552E0032CE
:100CB80021000D17632EDA27CA01CA0AC9018B1051
:100CC800270096010B100B112000111091108B17A3
:100CD8000800F9002030790276080318AD2E0319B0
:100CE800842E0B260930F8001E30F700E430890BFB
:100CF8007B2EF70B7B2EF80B7B2E00322000B201E7
:100D08002000310803198D2E22008D1521008D1128
:100D1800932E383022008D04C73021008D05220023
:100D28008C1321008C137908A92779080319A62E9A
:100D3800FB30D227AE260319A62EFC30D227AE26CA
:100D4800031DA72EDA2776080319080021000D17BE
:100D58000800E82EFF3EF700FF3003180030F800C7
:100D68007908770678040800F5007008F400230075
:100D78009518BB2E7508FF3EF200FF3003180030AF
:100D8800F30072089100730892009513F103710F34
:100D9800CE2E08009518CE2E74088600870101080B
:100DA8009300F40A910A0319920A03108B1B031487
:100DB8008B13151555309600AA3096009514151109
:100DC800031CCA2E8B17CA2EF20072080319FB2EB9
:100DD8000B260930F1001E30F000E430890BF22EAA
:100DE800F00BF22EF10BF22E00322000B20122009D
:100DF8008C1721008C13200031080319062F2100BD
:100E08008D15092F383021008D047208031D0D1728
:100E18000800F03021009900970123008C018D0112
:100E2800073021009500203024008C0007308D0009
:100E380022008C17603021008C00023027009400BB
:100E4800063095008B153130200098007E309C00CC
:100E58000B170800F200F301730872060319432FF9
:100E68007308F03E840087300318013E85000008AF
:100E780022008C008B108B1C3F2FF30A302F700838
:100E880022008C008B108B1C472F8B100800F3005E
:100E98007308F200230095184E2F700891009201F4
:100EA800F103710F582F08009518582F9513151432
:100EB80072088600870113088100F20A910A031953
:100EC800920A542F0330A0002130A101A201A20AE6
:100ED800A300A401A40AA501A50AA601A60AA701C0
:100EE800A70A2700960108000B2C572C612C752C9B
:100EF800802C862C8C2CF82CA02CCB2C892CD02C3C
:100F0800DC2CFE0012001E000130FE020030FF3B08
:100F18007F087E0403190034862F640001308001A5
:100F28000131FE020030FF3B7F087E0403190034C4
:100F3800922FF200F10170087218F107F035F236BD
:100F48007208031D9F2F71080800F00022000C088A
:100F5800F100E030F10570081F39F10471088C00C8
:100F680008003B309700E03096004808B0001110A8
:100F7800BC01210011140800FF309A007830AF003E
:100F88009110BE01210091140800223023009B001B
:100F98009F01A4309E0010309D000800F400F0006E
:100FA8007530F101F10A4B2775080800023020005E
:100FB800CA00B601B7018B100B160800F70076308F
:100FC800F000F101F10A7708B82E1B2A092A102A25
:100FD800102A142A162A182A01340034013401343C
:100FE80000349F2AB22AC12AC72ACC2AF0009500C9
:060FF8000B118B1608002E
:020000040001F9
:04000E008CC9FFDDBD
:10E000000000000000000000000000000000000010
:10E010000000000000000000000000000000000000
:10E0200000000000000000000000000000000000F0
:10E0300000000000000000000000000000000000E0
:10E0400000000000000000000000000000000000D0
:10E0500000000000000000000000000000000000C0
:10E0600000000000000000000000000000000000B0
:10E0700000000000000000000000000000000000A0
:10E080000000000000000000000000000000000090
:10E090000000000000000000000000000000000080
:10E0A0000000000000000000000000000000000070
:10E0B0000000000000000000000000000000000060
:10E0C0000000000000000000000000000000000050
:10E0D0000000000000000000000000000000000040
:10E0E0000000000000000000000000000000000030
:10E0F0000000000000000000000000000000000020
:10E10000000000000000000000000000000000000F
:10E1100000000000000000000000000000000000FF
:10E1200000000000000000000000000000000000EF
:10E1300000000000000000000000000000000000DF
:10E1400000000000000000000000000000000000CF
:10E1500000000000000000000000000000000000BF
:10E1600000000000000000000000000000000000AF
:10E17000000000000000000000000000000000009F
:10E18000000000000000000000000000000000008F
:10E19000000000000000000000000000000000007F
:10E1A000000000000000000000000000000000006F
:10E1B000000000000000000000000000000000005F
:10E1C000000000000000000000000000000000004F
:10E1D000000000000000000000000000000000003F
:10E1E000000000000000000000000000000000002F
:10E1F00000000000000001000100010020002100DB
:00000001FF
